:100000000C94FA000C9420010C9420010C94200113
:100010000C9420010C9420010C9420010C942001DC
:100020000C9420010C9420010C9420010C942001CC
:100030000C9420010C9420010C9420010C942001BC
:100040000C9420010C9420010C9420010C942001AC
:100050000C94F6050C9420010C9420010C942001C2
:100060000C9420010C94EA020C941E030C942001C1
:100070000C9420010C9420010C9420010C9420017C
:100080000C9420010C9420010C9420010C9420016C
:100090000C9420010C9420010C9420010C9420015C
:1000A0000C9420010C9420010C9420010C9420014C
:1000B0000C9420010C9420010C9420010C9420013C
:1000C0000C9420010C9420010C9420010C9420012C
:1000D0000C9420010C9492050C9420010C942001A6
:1000E0000C9420010C9420010C9420010C9420010C
:1000F0000C9420010C9420010C9420010C942001FC
:100100000C9420010C9420010C9420010C942001EB
:100110000C9420010C9420010C9420010C942001DB
:100120000C9420010C9420010C9420010C942001CB
:100130000C9420010C9420010C9420010C942001BB
:100140000C9420010C9420010C9420010C94C40503
:100150000C9420010C9420010C9420010C9420019B
:100160000C9420010C9420010C9420010C9420018B
:100170000C9420010C9420010C9420010C9420017B
:100180000C9420010C9420010C9420010C9420016B
:100190000C9420010C9420010C9420010C9420015B
:1001A0000C9420010C9420010C9420010C9420014B
:1001B0000C9420010C9420010C9420010C9420013B
:1001C0000C9420010C9420010C9420010C9420012B
:1001D0000C9420010C9420010C9420010C9420011B
:1001E0000C9420010C9420010C9420010C9420010B
:1001F0000C94200111241FBECFEFDFE3DEBFCDBF83
:1002000000E00CBF18BE19BE1ABE1BBE10E2A0E073
:10021000B0E2EAE6F4E100E00BBF02C007900D9205
:10022000A032B107D9F71BBE11E2A0E2B0E201C0D3
:100230001D92A331B107E1F70E947B060C94330AAB
:100240000C9400000F93CF93DF930F92CDB7DEB7DE
:100250002FB72983F8941BBEFC0108ED04BF60830F
:1002600089818FBF0F90DF91CF910F910895662301
:1002700011F090E201C090E0842B892BE0E5F0E0E2
:10028000828308956F71682BE0E5F0E0658308953F
:10029000E0E5F0E02081982F909592239083908163
:1002A00089230895682B81E490E00E94220108953B
:1002B0001F93CF93DF93182FC0E4D0E06881687F4D
:1002C000682B80E490E00E94220188818123DF91E5
:1002D000CF911F910895E0E4F0E09381917F9160C8
:1002E000982B9383089530915600282F982F90953E
:1002F0009323662309F420E0922BE0E5F0E0968357
:10030000813031F4809168008160809368000895A5
:10031000823029F4809160008160809360000895AC
:1003200083E590E063E00E942201089582E490E07A
:1003300061E00E9422010895FC01A285B3858485B5
:100340008C93A285B385848D836011968C93A2854E
:10035000B38513961C92A285B385808D90E0969606
:100360008D939C939797A489B5891D921C92A68919
:10037000B7891D921C92A085B18586E08C93A085DB
:10038000B18583E011968C931197148215821682A1
:1003900017821082118212821382158E81E0868F5D
:1003A000178E10A211A212A208950F931F93FC01A1
:1003B000A085B18516968C91169780FF07C0078D92
:1003C00010A121A132A181E0868F04C0008111819A
:1003D00022813381B801C9011F910F910895DC0179
:1003E0001896ED91FC911997868181700895FC0112
:1003F000A585B68518968C9118979785982381E0E6
:1004000009F480E00895DC011896ED91FC911997AC
:10041000868181700895FC01A085B18516968C9126
:1004200016978C7F16968C93A285B385808D90E06D
:1004300096968D939C939797A285B38588E019969D
:100440008C9380819181A281B381878F90A3A1A396
:10045000B2A30895CF92DF92EF92FF920F931F9372
:10046000CF93DF93EC016A017B018901E885F9856F
:10047000868180FF03C0CE010E940B022A8D3B8D36
:10048000C8010217130708F4C901CC82DD82EE828D
:10049000FF82E885F98586A397A3E885F98528E09A
:1004A0002187EA85FB85898D90E086A397A3EA855D
:1004B000FB852187E885F985868181608683DF91C8
:1004C000CF911F910F91FF90EF90DF90CF90089503
:1004D000CF93DF93EC010E940B021C821D821E82CF
:1004E0001F82188219821A821B821F8E18A219A2DB
:1004F0001AA2DF91CF910895E0EAF8E083818C7F22
:1005000083830895FC0185A9813219F481E08093E9
:10051000202008950895E0E4F6E088E0818384E0F7
:100520008283E0EAF8E083818F7C8061838383E0CB
:10053000858387E686831782848188618483089512
:1005400081E390E20E945E038CE792E08093A42016
:100550009093A52087EE92E08093A2209093A32011
:1005600082E892E08093A6209093A7208AE892E008
:100570008093A8209093A9200E948B02089581E384
:1005800090E20E94BB04882319F080E090E0089577
:1005900081E390E2089580912020882329F0109231
:1005A000202081E390E2089580E090E0089590910A
:1005B000A10895FFFCCF8093A0088091A30882FD3D
:1005C00005C08C7F8160E0EAF8E0838308950E9493
:1005D000D70208951F920F920FB60F9208B60F928E
:1005E00009B60F920BB60F9211242F933F934F939E
:1005F0005F936F937F938F939F93AF93BF93EF938B
:10060000FF936091A00881E390E20E94E203FF91D2
:10061000EF91BF91AF919F918F917F916F915F917A
:100620004F913F912F910F900BBE0F9009BE0F90ED
:1006300008BE0F900FBE0F901F9018951F920F923B
:100640000FB60F9208B60F9209B60F920BB60F9223
:1006500011242F933F934F935F936F937F938F93C7
:100660009F93AF93BF93EF93FF9381E390E20E9438
:100670002304FF91EF91BF91AF919F918F917F9153
:100680006F915F914F913F912F910F900BBE0F9003
:1006900009BE0F9008BE0F900FBE0F901F901895C7
:1006A000FC01E958FF4F208131812115310529F0E6
:1006B0000190F081E02D862F19950895FC0117AA6D
:1006C00014AADC01AF58BF4F1D921C921197DC0198
:1006D000AD58BF4F1D921C921197DC01AB58BF4F14
:1006E0001D921C921197DC01A958BF4F1D921C92BC
:1006F0001197DC01A659BF4F84E18C93DF01A55906
:10070000BF4F1C92DF01A459BF4F1C92DF01A359B8
:10071000BF4F1C92E159FF4F108211820895CF9371
:10072000DF93EC018FA9823081F0833020F4813097
:1007300009F045C006C08330B1F0843009F03FC0F5
:1007400026C06DAB6EAB82E020C0633330F01FAAD1
:10075000CE0164E00E94500332C06BAB8EA9860FBD
:100760008EAB83E012C08BA981508BAB8EA9860F14
:100770008EAB8AA9FE01E80FF11D60838AA98F5F05
:100780008AAB8BA98823D9F484E08FAB18C08EA9DB
:1007900080958EAB8EA9681769F4FE01EB58FF4F68
:1007A00080819181009751F00190F081E02DCE0180
:1007B000199504C0CE0165E00E9450031FAADF9185
:1007C000CF910895CF93DF93EC01862F81508E3F18
:1007D00018F0CE0167E012C08FA96A3C59F4882353
:1007E00021F0CE0161E00E94500381E08FAB1AAA94
:1007F0001CAA26C0882329F4CE0162E00E9450037F
:100800001FC06C3519F481E08CAB1AC08CA9882309
:10081000A1F01CAA633051F0643018F4623069F41E
:1008200007C0643039F0653041F406C06CE505C09E
:100830006AEC03C060E001C06FEFCE010E948F033D
:10084000DF91CF910895CF93DF93AC01FC01E25982
:10085000FF4F8081882311F080817DC0EA01C65955
:10086000DF4F8881813129F1823130F48F3051F0AE
:10087000803109F067C010C08231D9F1833109F0AD
:1008800061C03EC0FA01E559FF4F8081FA01E3598A
:10089000FF4F808390E10BC0FA01E459FF4F808144
:1008A000FA01E359FF4F9081980F908391E198836B
:1008B00035C0DA01A159BF4FED91FC9111978081AC
:1008C000FA01E359FF4F9081980F90832D913C914D
:1008D00011972F5F3F4F2D933C931197FA01E459E5
:1008E000FF4F90819150908390819923B9F492E1C8
:1008F000DECFFA01E359FF4F8081809593E1D7CF96
:1009000084E18883FA01ED58FF4F8081918100973F
:1009100079F10190F081E02D19952AC0FA01E25990
:10092000FF4F8C3561F08D3518F4882359F013C0D2
:100930008A3C19F08F3F79F40AC082E009C093E045
:1009400090830AC0FA01E259FF4F84E001C085E0BC
:1009500080838CE501C01082FA01EF58FF4F20819F
:1009600031812115310521F00190F081E02D19959B
:10097000DF91CF910895FC01E659FF4F908181E00E
:10098000943109F480E00895CF93DF939C01DC015A
:10099000A659BF4F8C91843121F5E901CF58DF4F23
:1009A000888199810097F9F04333F8F4F901E5590A
:1009B000FF4F6083F901E459FF4F4083C901C89696
:1009C000F901E159FF4F8083918322593F4FF9018B
:1009D00010828FE08C93E881F9818AEC199580E090
:1009E00005C08FEF03C08EEF01C08DEFDF91CF9177
:1009F000089580E460E040E00E943701809150005B
:100A00008860809350008091510083FFFCCF80EC80
:100A100064E00E9442018091500080618093500008
:100A200080E061E00E9452018091510084FFFCCF80
:100A300084E00E9458010895CF93DF93FC01408128
:100A400051816281738184819581A681B781481724
:100A500059076A077B0721F4CF010E940B025FC090
:100A6000408151816281738184819581A681B781A2
:100A700084179507A607B70744F480819181A28166
:100A8000B3810197A109B10907C080819181A28139
:100A9000B3810196A11DB11D80839183A283B3838D
:100AA000868D882341F080819181A281B381878FD7
:100AB00090A3A1A3B2A380819181A281B381282FA9
:100AC00030E0A089B189928925FF04C015969C93D6
:100AD000159702C016969C93A489B5892F71307022
:100AE0002050304EE90198819C9311961C92805FB2
:100AF00090E0A089B189238985FF04C015962C93C5
:100B0000159702C016962C930688F789E02D8F71F1
:100B100090708050904EDC018C9180831182DF9127
:100B2000CF9108951F920F920FB60F9208B60F92B1
:100B300009B60F920BB60F9211242F933F934F9348
:100B40005F936F937F938F939F93AF93BF93EF9335
:100B5000FF938AEA90E20E941C05FF91EF91BF91FA
:100B6000AF919F918F917F916F915F914F913F9145
:100B70002F910F900BBE0F9009BE0F9008BE0F90E3
:100B80000FBE0F901F9018951F920F920FB60F92E5
:100B900008B60F9209B60F920BB60F9211242F933D
:100BA0003F934F935F936F937F938F939F93AF93F5
:100BB000BF93EF93FF9380EF90E20E941C05FF919B
:100BC000EF91BF91AF919F918F917F916F915F91C5
:100BD0004F913F912F910F900BBE0F9009BE0F9038
:100BE00008BE0F900FBE0F901F9018951F920F9286
:100BF0000FB60F9208B60F9209B60F920BB60F926E
:100C000011242F933F934F935F936F937F938F9311
:100C10009F93AF93BF93EF93FF938DEC90E20E946D
:100C20001C05FF91EF91BF91AF919F918F917F91A3
:100C30006F915F914F913F912F910F900BBE0F904D
:100C400009BE0F9008BE0F900FBE0F901F90189511
:100C5000FC0106C09091A10895FFFCCF8093A008ED
:100C600081918823B9F70895CF93DF93EC018D8D9F
:100C70008130C1F4CE010E9403028823C1F5CE0168
:100C80000E94F701882311F082E027C04881598132
:100C90006A817B8148535F4F6F4F7F4FCE0120E0C9
:100CA00030E017C08230D9F4CE010E9403028823BD
:100CB000F1F4CE010E94F701882371F04881598137
:100CC0006A817B814550504060407040CE0128ECE5
:100CD00030E00E942A020BC083E08D8F08C0833071
:100CE00031F4CE010E9468021D8E81E001C080E0D7
:100CF000DF91CF910895CF93DF93CDB7DEB76A9799
:100D0000CDBFDEBF0E94F9040E94A002E0E4F6E03D
:100D100083EF818390E8292E96E0392E8FEFD10161
:100D200011968C9320E6822E26E0922E93E3D40136
:100D300011969C9330E2C32E36E0D32ED601129644
:100D40008C9380E498E08093D5209093D62080E027
:100D500098E08093D7209093D82066246394609283
:100D6000D920C092DA20D092DB206092DC20E09380
:100D7000DD20F093DE2000E20093DF2040E1B42E7E
:100D8000B092E0208AE298E08093E1209093E22004
:100D900088E298E08093E3209093E42010E310939E
:100DA000E9205CE3F52EF092E5206FE1E62EE0927B
:100DB000E6207FE0472E512C4092E7205092E82019
:100DC0008DEC90E20E949C0180E499E08093F820F1
:100DD0009093F92080E099E08093FA209093FB2093
:100DE0006092FC20C092FD20D092FE2082E0809391
:100DF000FF20809200219092012100930221B09265
:100E000003218AE299E0809304219093052188E2EE
:100E100099E0809306219093072110930C218BE495
:100E20008093082182E38093092189E190E08093F7
:100E30000A2190930B2180EF90E20E949C0180E4B4
:100E40009AE08093B2209093B32080E09AE0809360
:100E5000B4209093B5206092B620C092B720D09273
:100E6000B82084E08093B9202092BA203092BB2031
:100E70000093BC20B092BD208EE29AE08093BE2009
:100E80009093BF208CE29AE08093C0209093C12081
:100E900080EC8093C620F092C220E092C320409262
:100EA000C4205092C5208AEA90E20E949C01809161
:100EB000A2008760E0EAF0E0828378941B861986BE
:100EC0001A8601C01B860E94CB028C01009709F490
:100ED00073C2FC018081823409F4F9C0833428F4A0
:100EE000823291F1823379F706C0873709F450C016
:100EF000883849F73CC0B281B98B188AF801218142
:100F000030E0C888D9882C293D29D480DB8A1A8A08
:100F100063807724EA88FB886E287F28F680FD8A24
:100F20001C8A25803324CC88DD882C283D289AE033
:100F3000882499245401CC24DD24760140E050E03B
:100F4000BA012801D90180C0B281BF8B1E8AF80185
:100F5000E180FF24CE88DF88EC28FD2880AFC8011F
:100F600060E041E00E94C404E986FA86ACCFDD244B
:100F7000D394D092EA20D0920D21D092C72080AF96
:100F8000C80160E041E00E94C404B2E0BB879BCF8F
:100F9000F80180AF8DEC90E20E94D501662EB72E4D
:100FA000F82EE92E80EF90E20E94D501C62E872E02
:100FB000482E392E8AEA90E20E94D501D801D996AE
:100FC0006C92D997DA96BC92DA97DB96FC92DB9713
:100FD000DC96EC92DC97DD96CC92DD97DE968C92D7
:100FE000DE97DF964C92F801E05CFF4F3082F8010B
:100FF000EF5BFF4F6083F801EE5BFF4F7083F801FA
:10100000ED5BFF4F8083F801EC5BFF4F90838DEC2D
:1010100090E20E940302282F80EF90E22A8F0E9424
:1010200003022A8D811122608AEA90E22A8F0E94AF
:1010300003022A8D81112460F801EB5BFF4F2083AE
:10104000C80160E04EE0B5C10027142F252F362FD0
:10105000428550E060E070E0402B512B622B732BF7
:101060003E2D2D2D1C2D0027C684DD24EE24FF24CB
:10107000C02AD12AE22AF32A3A2D292D182D002739
:1010800082889924AA24BB24802A912AA22AB32ADE
:10109000915031979630C1F69D018DEC90E20E94FF
:1010A0002A0280EF90E2B701A60193010E942A0272
:1010B0008AEA90E2B501A40191010E942A02E2E3CA
:1010C000CE2EF201C0AEC20160E041E072C11092CA
:1010D0004008109240091092400AF80124E01D8255
:1010E0001E821F82188688249924540119821A822C
:1010F0001B821C82CC24DD24760140E050E0BA0142
:10110000BE2DAD2D9C2D88273481C32EDD24EE24E9
:10111000FF24C82AD92AEA2AFB2ABA2DA92D982DFC
:10112000882780849924AA24BB24882A992AAA2A59
:10113000BB2AB62FA52F942F8827448550E060E066
:1011400070E0482B592B6A2B7B2B2150319722239F
:10115000B9F6C982DA82EB82FC824D835E836F83AB
:10116000788789819A8197FF03C0909581959F4FD9
:101170002C01662457FC6094762CC40197FE03C0B2
:10118000909581959F4FAC01662757FD6095762F0E
:10119000488F598F362E272E44155505660577053D
:1011A00014F4B301A2018D819E8197FF03C0909535
:1011B00081959F4F6C01EE24D7FCE094FE2CCC86E9
:1011C000DD86EE86FF866A017B018C859D85AE8576
:1011D000BF85481759076A077B0714F46C017D0126
:1011E00089819A81AB81BC810097A105B10581F00D
:1011F000A985BA859D0140E050E0C701B6010E9473
:10120000F209A30192010E94110A29013A0104C0C6
:1012100044244A94542C320181149104A104B10451
:1012200091F0E985FA859F0140E050E0C701B601E1
:101230000E94F209288D398D432D522D0E94110AEA
:1012400049015A0104C088248A94982C54018D8144
:101250009E81AF81B8850097A105B10591F0A98560
:10126000BA859D0140E050E0C701B6010E94F20935
:101270002C853D854E855F850E94110A69017A01A2
:1012800004C0CC24CA94DC2C7601D301C201807046
:1012900090700097A105B10521F044244A94542C84
:1012A0003201D501C401807090700097A105B1058D
:1012B00021F088248A94982C5401D701C6018070AB
:1012C00090700097A105B10521F0CC24CA94DC2CC4
:1012D00076019201A401B601109260081092610893
:1012E00010926009109261091092600A1092610ACE
:1012F000409266085092670880926609909267094A
:10130000C092660AD092670A809121209091222093
:10131000A0912320B0912420C980DA80EB80FC804A
:101320008C0D9D1DAE1DBF1D80932120909322200A
:10133000A0932320B09324208091292090912A20EB
:10134000A0912B20B0912C20CD80DE80EF80F884FE
:101350008C0D9D1DAE1DBF1D8093292090932A20CA
:10136000A0932B20B0932C20E8E0DE2ED092090928
:10137000F6E0EF2EE0924008E0924009E092400A49
:10138000E2E4D801D896EC93D897D9964C92D997A5
:10139000DA963C93DA97DB968C92DB97DC965C933B
:1013A000DC97DD966C93DD97DE967C93C80160E058
:1013B00047E00E94C40487CDFB85F23009F083CD5D
:1013C0008DEC90E20E943406182F80EF90E20E948C
:1013D000340618238AEA90E20E943406812309F039
:1013E00071CD71CD629FD001739FF001829FE00D9E
:1013F000F11D649FE00DF11D929FF00D839FF00D94
:10140000749FF00D659FF00D9927729FB00DE11D3F
:10141000F91F639FB00DE11DF91FBD01CF0111241C
:101420000895A1E21A2EAA1BBB1BFD010DC0AA1F25
:10143000BB1FEE1FFF1FA217B307E407F50720F03D
:10144000A21BB30BE40BF50B661F771F881F991FB8
:101450001A9469F760957095809590959B01AC0101
:0A146000BD01CF010895F894FFCFFD
:10146A00000306090C0F121417191B1C1E1F1F203C
:10147A0020201F1F1E1C1B191714120F0C0906030C
:00000001FF
