:100000000C94FA000C9420010C9420010C94200113
:100010000C9420010C9420010C9420010C942001DC
:100020000C9420010C9420010C9420010C942001CC
:100030000C9420010C9420010C9420010C942001BC
:100040000C9420010C9420010C9420010C942001AC
:100050000C942D060C9420010C9420010C9420018A
:100060000C9420010C9484020C94BB020C9420018B
:100070000C9420010C9420010C9420010C9420017C
:100080000C9420010C9420010C9420010C9420016C
:100090000C9420010C9420010C9420010C9420015C
:1000A0000C9420010C9420010C9420010C9420014C
:1000B0000C9420010C9420010C9420010C9420013C
:1000C0000C9420010C9420010C9420010C9420012C
:1000D0000C9420010C9420010C9420010C9420011C
:1000E0000C9420010C9420010C9420010C9420010C
:1000F0000C9420010C9420010C9420010C942001FC
:100100000C9420010C9420010C9420010C942001EB
:100110000C9420010C9420010C9420010C942001DB
:100120000C9420010C9420010C9420010C942001CB
:100130000C9420010C9420010C9420010C942001BB
:100140000C9420010C9420010C9420010C942001AB
:100150000C9420010C9420010C9420010C9420019B
:100160000C9420010C9420010C9420010C9420018B
:100170000C9420010C9420010C9420010C9420017B
:100180000C9420010C9420010C9420010C9420016B
:100190000C9420010C9420010C9420010C9420015B
:1001A0000C9420010C9420010C9420010C9420014B
:1001B0000C9420010C9420010C9420010C9420013B
:1001C0000C9420010C9420010C9420010C9420012B
:1001D0000C9420010C9420010C9420010C9420011B
:1001E0000C9420010C9420010C9420010C9420010B
:1001F0000C94200111241FBECFEFDFE3DEBFCDBF83
:1002000000E00CBF18BE19BE1ABE1BBE10E2A0E073
:10021000B0E2ECE4F2E100E00BBF02C007900D9207
:10022000A032B107D9F71BBE11E2A0E2B0E201C0D3
:100230001D92A930B107E1F70E94B2060C9424097F
:100240000C9400000F93DF93CF930F92CDB7DEB7DE
:100250002FB72983F8941BBEFC0108ED04BF60830F
:1002600089818FBF0F90CF91DF910F910895662301
:1002700011F090E201C090E0842B892BE0E5F0E0E2
:10028000828308956F71862BE0E5F0E08583089501
:10029000E0E5F0E09081282F2095922390839081D3
:1002A00089230895682B81E490E00E94220108953B
:1002B0001F93CF93DF93182FC0E4D0E06881687F4D
:1002C000682B80E490E00E94220188818123DF91E5
:1002D000CF911F910895E0E4F0E09381917F9160C8
:1002E000892B83830895E0E5F0E02681982F382F4D
:1002F00030952323662309F490E0922BE0E5F0E0AB
:100300009683813031F4E8E6F0E08081816080837B
:100310000895823029F4E0E6F0E0808181608083F6
:10032000089583E590E063E00E942201089582E44D
:1003300090E061E00E9422010895FC01A085B18552
:1003400021E02C93A085B1858689836011968C93DA
:10035000A085B18513961C92A085B185858990E012
:1003600096968D939C939797A189B2891D921C9222
:10037000A389B4891D921C9211971482158216824A
:1003800017821082118212821382178A208F118E97
:10039000128E138E148E0895FC01A285B3851896D3
:1003A0008C9118979485982381E009F480E0089552
:1003B000FC01448155816681778181E041155105B9
:1003C0006105710509F480E008950F931F93CF93A1
:1003D000DF93EC010E94D801882341F0188E098D2B
:1003E0001A8D2B8D3C8D81E0888F04C00881198186
:1003F0002A813B81602F712F822F932FDF91CF9124
:100400001F910F91089508950895FC01148215829B
:10041000168217821082118212821382118E128E1E
:10042000138E148E0895E0EAF8E083818C7F838335
:100430000895FC0185A9813219F481E08093202080
:1004400008950895E0E4F6E088E0818384E0828303
:10045000E0EAF8E083818F7C8061838383E0858399
:1004600087E686831782848188618483089589E37F
:1004700090E20E94FE0283E192E08093AC20909390
:10048000AD2081E892E08093AA209093AB2089E18F
:1004900092E08093AE209093AF2081E292E080932F
:1004A000B0209093B1200E942202089589E390E247
:1004B0000E948104882319F020E030E002C029E383
:1004C00030E2822F932F089580912020882329F0F5
:1004D0001092202029E330E202C020E030E0822F99
:1004E000932F0895E0EAF8E0918195FFFDCFE0EACF
:1004F000F8E08083838182FD03C08C7F81608383E9
:1005000008950E94720208951F920F920FB60F92E3
:1005100008B60F9209B60F920BB60F92112418BEAF
:1005200019BE1BBE2F933F934F935F936F937F939F
:100530008F939F93AF93BF93EF93FF936091A00826
:1005400089E390E20E948703FF91EF91BF91AF9101
:100550009F918F917F916F915F914F913F912F91DB
:100560000F900BBE0F9009BE0F9008BE0F900FBEEC
:100570000F901F9018951F920F920FB60F9208B60A
:100580000F9209B60F920BB60F92112418BE19BE26
:100590001BBE2F933F934F935F936F937F938F93E4
:1005A0009F93AF93BF93EF93FF9389E390E20E94F1
:1005B000CB03FF91EF91BF91AF919F918F917F916D
:1005C0006F915F914F913F912F910F900BBE0F90C4
:1005D00009BE0F9008BE0F900FBE0F901F90189588
:1005E000FC01E958FF4F408151814115510529F027
:1005F0000190F081E02D862F19950895FC0117AA2E
:1006000014AADC01AF58BF4F1D921C921197DC0158
:10061000AD58BF4F1D921C921197DC01AB58BF4FD4
:100620001D921C921197DC01A958BF4F1D921C927C
:100630001197DC01A659BF4F84E18C93DF01A559C6
:10064000BF4F1C92DF01A459BF4F1C92DF01A35979
:10065000BF4F1C92E159FF4F108211820895CF9332
:10066000DF93EC018FA9823089F0833020F4813050
:1006700009F04AC006C08330C1F0843009F044C09C
:1006800028C06DAB6EAB82E08FAB3EC0633330F001
:100690001FAACE0164E00E94F00236C06BAB8EA9A7
:1006A000680F6EAB83E08FAB2FC08BA981508BABF3
:1006B0008EA9860F8EAB8AA9FE01E80FF11D60831B
:1006C0008AA98F5F8AAB8BA98823F1F484E08FAB72
:1006D0001BC08EA980958EAB8EA9861781F4FE0172
:1006E000EB58FF4F80819181009769F0FE01EB5834
:1006F000FF4F0190F081E02DCE01199504C0CE018D
:1007000065E00E94F0021FAADF91CF910895CF9378
:10071000DF93EC01862F81508E3F28F0CE0167E0F9
:100720000E94F00235C06A3C61F48FA9882321F051
:10073000CE0161E00E94F00281E08FAB1AAA1CAAF0
:1007400027C08FA9882329F4CE0162E00E94F0021D
:100750001FC06C3519F481E08CAB1AC08CA98823BA
:10076000A1F01CAA633081F0643018F4623069F49F
:1007700005C0643029F0653041F404C06AEC05C05E
:1007800060E003C06FEF01C06CE5CE010E942F0353
:10079000DF91CF9108959C01FC01E259FF4F8081C8
:1007A000882331F0F901E259FF4F808110829CC00B
:1007B000F901E659FF4F8081813169F1823130F4CE
:1007C0008F3059F0803109F063C015C0823109F4CF
:1007D00043C0833109F05CC04AC0F901E559FF4FBD
:1007E0008081F901E359FF4F8083F901E659FF4FFA
:1007F00090E190834EC0F901E459FF4F8081F901E7
:10080000E359FF4F9081980F9083F901E659FF4F0C
:1008100091E190833EC0F901E159FF4FA081B18180
:100820008C91D901A359BF4F9C91980F9C93408103
:1008300051814F5F5F4F40835183F901E459FF4F6E
:100840009081915090839081992319F5F901E6598F
:10085000FF4F92E190831DC0F901E359FF4F808162
:100860008095F901E659FF4F93E1908312C0F90199
:10087000E659FF4F84E18083F901ED58FF4F8081F5
:1008800091810097E9F10190F081E02D199508958B
:1008900080E08C3589F08D3518F4882399F020C0DC
:1008A0008A3C19F08F3FE1F414C0F901E259FF4F7F
:1008B00082E080838CE518C0F901E259FF4F93E094
:1008C000908312C0F901E259FF4F84E080838CE5E8
:1008D0000BC0F901E259FF4F85E080838CE504C02D
:1008E000F901E259FF4F1082F901EF58FF4F4081A3
:1008F00051814115510521F00190F081E02D1995AC
:100900000895FC01E659FF4F908181E0943109F48C
:1009100080E008950F931F93CF93DF93EC01062F90
:10092000142F0E948104882349F5FE01EF58FF4FE0
:1009300080819181009721F1133320F5FE01E55963
:10094000FF4F0083FE01E459FF4F1083CE01C8968C
:10095000FE01E159FF4F80839183FE01E259FF4F71
:100960001082FE01E659FF4F8FE08083CF58DF4FA2
:10097000E881F9818AEC199580E005C08FEF03C00A
:100980008EEF01C08DEFDF91CF911F910F910895F0
:1009900080E460E040E00E943701E0E5F0E0808123
:1009A00088608083818183FFFDCF80EC64E00E94BA
:1009B0004201E0E5F0E080818061808380E061E0D9
:1009C0000E945201E0E5F0E0818184FFFDCF84E0E8
:1009D0000E9458010895CF93DF93FC01862F992739
:1009E00087FD909585FF07C0A585B6852785159657
:1009F0002C93159705C0A585B685278516962C934B
:100A0000A189B2898F719070EC01C050D04E88815D
:100A10008C9311961C921197605F772767FD7095F4
:100A200065FF07C0A585B685808915968C931597B7
:100A300005C0A585B685808916968C930388F489B0
:100A4000E02D6F717070DB01A050B04E8C918083EF
:100A50001182DF91CF910895CF92DF92EF92FF92B2
:100A60000F931F93CF93DF93EC014091252050917A
:100A7000262060912720709128208091212090913C
:100A80002220A0912320B0912420481759076A07FB
:100A90007B07C9F4488159816A817B818C819D8162
:100AA000AE81BF81840F951FA61FB71F88839983CE
:100AB000AA83BB83488159816A817B81CE01642FDF
:100AC0000E94EB044AC06C817D818E819F810091E0
:100AD0002520109126202091272030912820C09099
:100AE0002120D0902220E0902320F0902420A90102
:100AF0009801220F331F441F551F2F5F3F4F4F4F49
:100B00005F4F0E94C808A70196010E94E708CA012A
:100B1000B9016F5F7F4F8F4F9F4F22E030E040E081
:100B200050E00E94E70889019A01888D882361F0CE
:100B300088819981AA81BB81800F911FA21FB31F59
:100B4000898F9A8FAB8FBC8F88819981AA81BB8155
:100B5000602F680FCE010E94EB04DF91CF911F91AF
:100B60000F91FF90EF90DF90CF90089581E0E0E843
:100B7000F6E085838091212090912220A09123206E
:100B8000B09124200097A105B10509F461C08FEC54
:100B900090E20E942C058CEE90E20E942C0582EBE4
:100BA00090E20E942C0540912520509126206091D2
:100BB0002720709128208091212090912220A091BF
:100BC0002320B0912420481759076A077B0769F54D
:100BD0001092D3201092D4201092D5201092D620BB
:100BE0001092F0201092F1201092F2201092F32037
:100BF0001092B6201092B7201092B8201092B9200F
:100C00001092212010922220109223201092242052
:100C10001092252010922620109227201092282032
:100C200082E0E0E8F6E0878313C080912520909170
:100C30002620A0912720B09128200196A11DB11D4A
:100C40008093252090932620A0932720B0932820DE
:100C500081E0E0E8F6E0868308951F920F920FB6D8
:100C60000F9208B60F9209B60F920BB60F9211248D
:100C70002F933F934F935F936F937F938F939F93A4
:100C8000AF93BF93EF93FF930E94B605FF91EF914F
:100C9000BF91AF919F918F917F916F915F914F9194
:100CA0003F912F910F900BBE0F9009BE0F9008BE81
:100CB0000F900FBE0F901F901895CF93DF93EC010C
:100CC0008F898130F1F4CE010E94D801882309F088
:100CD00041C0CE010E94CC01882321F082E08F8B9D
:100CE00080E03DC0488159816A817B8148535F4FD4
:100CF0006F4F7F4FCE0120E030E00E94030280E082
:100D00002EC08F898230E9F4CE010E94D801882359
:100D100019F5CE010E94CC01882379F048815981D0
:100D20006A817B814550504060407040CE0128EC84
:100D300030E00E94030280E012C083E08F8B80E0ED
:100D40000EC08F89833051F4CE010E9405021F8AA4
:100D500081E005C080E003C080E001C080E0DF9159
:100D6000CF910895CF93DF93CDB7DEB72997CDBF4D
:100D7000DEBF0E94C8040E943702E0E4F6E083EF81
:100D800081830F2EF0E8EF2EF6E0FF2EF02D8FEF8F
:100D9000D70111968C9300E616E093E3D8011196E3
:100DA0009C930F2EF0E22F2EF6E03F2EF02DD10176
:100DB00012968C9380E098E08093D7209093D8206F
:100DC0002092D9203092DA2081E08093DB20E093DA
:100DD000DC20F093DD20DD246894D5F8D092DE206D
:100DE000CC246894C4F8C092DF208AE298E0809313
:100DF000E0209093E12088E298E08093E2209093B5
:100E0000E3200F2EF0E34F2EF02D4092E5200F2E21
:100E1000FFE18F2EF02D8092E4208FEC90E20E9473
:100E20009D0180E099E08093F4209093F52020923A
:100E3000F6203092F72082E08093F8200093F9208A
:100E40001093FA20D092FB20C092FC208AE299E015
:100E50008093FD209093FE2088E299E08093FF200C
:100E60009093002140920221809201218CEE90E229
:100E70000E949D0180E09AE08093BA209093BB206D
:100E80002092BC203092BD2084E08093BE20E0926E
:100E9000BF20F092C020D092C120C092C2208EE22A
:100EA0009AE08093C3209093C4208CE29AE08093D0
:100EB000C5209093C62080EC8093C8208092C720E4
:100EC00082EB90E20E949D01E0EAF0E0828187607F
:100ED0008283E0E4F8E083E081838AEF90E086A3F8
:100EE00097A385E0808388E08187868181608683FF
:100EF000789419820F2EF7E72F2EF02D3324339498
:100F0000EFECF0E23496EA83FB832CEE30E22C5FC8
:100F10003F4F2C833D8342EB50E24C5F5F4F4E834B
:100F20005F8301C019820E9464028C01009709F45A
:100F300019C1DC018C918737D1F0883819F08233E0
:100F400091F770C0E6EEF0E23082A3E0B1E23C92AD
:100F5000E9ECF0E23082E8E8D801D896EC93C801D9
:100F600060E0432D0E948A04F2E0F983DCCFD801CF
:100F7000D8962C92809146088C7F809346088FECFF
:100F800090E20E94E501B62EA72EF82EE92E8CEEF7
:100F900090E20E94E501D62EC72E882E492E82EBC4
:100FA00090E20E94E50120914608216020934608C6
:100FB000F801B1AEA2AEF3AEE4AED5AEC6AE87AE2A
:100FC000E05CFF4F4082F801EF5BFF4F6083F80168
:100FD000EE5BFF4F7083F801ED5BFF4F8083F801FC
:100FE000EC5BFF4F90838FEC90E20E94D801F82ECB
:100FF0008CEE90E20E94D801882311F0F2E0FF2AE3
:1010000082EB90E20E94D801882311F024E0F22ABA
:10101000F801EB5BFF4FF082C80160E04EE00E94F8
:101020008A0481CFC801439624E044245524320128
:10103000882499245401CC24DD247601888799875B
:101040007E2D6D2D5C2D4427E885F98539978081AB
:1010500090E0A0E0B0E06C017D01C42AD52AE62A28
:10106000F72ABA2CA92C982C8824E885F98535977D
:10107000808190E0A0E0B0E0882A992AAA2ABB2AC1
:10108000762D652D542D4427A885B9858E91A88786
:10109000B98790E0A0E0B0E02C013D01442A552A38
:1010A000662A772A215061F6809146088C7F8093CA
:1010B000460888E893E1A0E0B0E080932120909377
:1010C0002220A0932320B093242010922520109258
:1010D00026201092272010922820EFECF0E2808149
:1010E0009181A281B381A7019601281B390B4A0B7C
:1010F0005B0BEA81FB812083318342835383ECEED7
:10110000F0E280819181A281B381A5019401281B25
:10111000390B4A0B5B0BEC81FD81208331834283C9
:101120005383E2EBF0E280819181A281B381A3013C
:101130009201281B390B4A0B5B0BEE81FF81208348
:1011400031834283538380914608816080934608AF
:1011500082E3D801D8968C93C80160E0432D0E94A9
:101160008A04E1CEB981B23009F0DDCE8FEC90E295
:101170000E945D06082F8CEE90E20E945D06082317
:1011800082EB90E20E945D06802309F0CBCECBCEAD
:10119000629FD001739FF001829FE00DF11D649F5B
:1011A000E00DF11D929FF00D839FF00D749FF00DE7
:1011B000659FF00D9927729FB00DE11DF91F639F88
:1011C000B00DE11DF91FBD01CF011124089597FB5A
:1011D000092E05260ED057FD04D014D00AD0001CCD
:1011E00038F450954095309521953F4F4F4F5F4FC4
:1011F0000895F6F790958095709561957F4F8F4F84
:101200009F4F0895A1E21A2EAA1BBB1BFD010DC022
:10121000AA1FBB1FEE1FFF1FA217B307E407F507A6
:1012200020F0A21BB30BE40BF50B661F771F881F82
:10123000991F1A9469F760957095809590959B0118
:0C124000AC01BD01CF010895F894FFCF70
:10124C00000306090C0F121417191B1C1E1F1F205C
:10125C0020201F1F1E1C1B191714120F0C0906032C
:00000001FF
